{
  "_format": "hh-sol-artifact-1",
  "contractName": "RocketSwapRouter",
  "sourceName": "contracts/RocketSwapRouter.sol",
  "abi": [
    {
      "inputs": [
        {
          "internalType": "address",
          "name": "_rocketStorage",
          "type": "address"
        },
        {
          "internalType": "address",
          "name": "_wethAddress",
          "type": "address"
        },
        {
          "internalType": "address",
          "name": "_uniswapRouter",
          "type": "address"
        },
        {
          "internalType": "uint24",
          "name": "_uniswapPoolFee",
          "type": "uint24"
        },
        {
          "internalType": "address",
          "name": "_balancerVault",
          "type": "address"
        },
        {
          "internalType": "bytes32",
          "name": "_balancerPoolId",
          "type": "bytes32"
        }
      ],
      "stateMutability": "nonpayable",
      "type": "constructor"
    },
    {
      "inputs": [
        {
          "internalType": "uint256",
          "name": "amountOut",
          "type": "uint256"
        }
      ],
      "name": "LessThanMinimum",
      "type": "error"
    },
    {
      "inputs": [],
      "name": "TransferFailed",
      "type": "error"
    },
    {
      "inputs": [],
      "name": "WETH",
      "outputs": [
        {
          "internalType": "contract IWETH",
          "name": "",
          "type": "address"
        }
      ],
      "stateMutability": "view",
      "type": "function"
    },
    {
      "inputs": [],
      "name": "balancerPoolId",
      "outputs": [
        {
          "internalType": "bytes32",
          "name": "",
          "type": "bytes32"
        }
      ],
      "stateMutability": "view",
      "type": "function"
    },
    {
      "inputs": [],
      "name": "balancerVault",
      "outputs": [
        {
          "internalType": "contract IVault",
          "name": "",
          "type": "address"
        }
      ],
      "stateMutability": "view",
      "type": "function"
    },
    {
      "inputs": [],
      "name": "rETH",
      "outputs": [
        {
          "internalType": "contract IrETH",
          "name": "",
          "type": "address"
        }
      ],
      "stateMutability": "view",
      "type": "function"
    },
    {
      "inputs": [
        {
          "internalType": "uint256",
          "name": "_uniswapPortion",
          "type": "uint256"
        },
        {
          "internalType": "uint256",
          "name": "_balancerPortion",
          "type": "uint256"
        },
        {
          "internalType": "uint256",
          "name": "_minTokensOut",
          "type": "uint256"
        },
        {
          "internalType": "uint256",
          "name": "_idealTokensOut",
          "type": "uint256"
        },
        {
          "internalType": "uint256",
          "name": "_tokensIn",
          "type": "uint256"
        }
      ],
      "name": "swapFrom",
      "outputs": [],
      "stateMutability": "nonpayable",
      "type": "function"
    },
    {
      "inputs": [
        {
          "internalType": "uint256",
          "name": "_uniswapPortion",
          "type": "uint256"
        },
        {
          "internalType": "uint256",
          "name": "_balancerPortion",
          "type": "uint256"
        },
        {
          "internalType": "uint256",
          "name": "_minTokensOut",
          "type": "uint256"
        },
        {
          "internalType": "uint256",
          "name": "_idealTokensOut",
          "type": "uint256"
        }
      ],
      "name": "swapTo",
      "outputs": [],
      "stateMutability": "payable",
      "type": "function"
    },
    {
      "inputs": [],
      "name": "uniswapRouter",
      "outputs": [
        {
          "internalType": "contract ISwapRouter",
          "name": "",
          "type": "address"
        }
      ],
      "stateMutability": "view",
      "type": "function"
    },
    {
      "stateMutability": "payable",
      "type": "receive"
    }
  ],
  "bytecode": "0x6101606040523480156200001257600080fd5b5060405162002c3638038062002c36833981810160405281019062000038919062000300565b8573ffffffffffffffffffffffffffffffffffffffff1660808173ffffffffffffffffffffffffffffffffffffffff168152505060805173ffffffffffffffffffffffffffffffffffffffff166321f8a7216040516020016200009b9062000447565b604051602081830303815290604052805190602001206040518263ffffffff1660e01b8152600401620000cf91906200047c565b60206040518083038186803b158015620000e857600080fd5b505afa158015620000fd573d6000803e3d6000fd5b505050506040513d601f19601f8201168201806040525081019062000123919062000499565b73ffffffffffffffffffffffffffffffffffffffff166101208173ffffffffffffffffffffffffffffffffffffffff16815250508473ffffffffffffffffffffffffffffffffffffffff166101408173ffffffffffffffffffffffffffffffffffffffff16815250508373ffffffffffffffffffffffffffffffffffffffff1660a08173ffffffffffffffffffffffffffffffffffffffff16815250508262ffffff1660c08162ffffff16815250508173ffffffffffffffffffffffffffffffffffffffff1660e08173ffffffffffffffffffffffffffffffffffffffff1681525050806101008181525050505050505050620004cb565b600080fd5b600073ffffffffffffffffffffffffffffffffffffffff82169050919050565b60006200024d8262000220565b9050919050565b6200025f8162000240565b81146200026b57600080fd5b50565b6000815190506200027f8162000254565b92915050565b600062ffffff82169050919050565b6200029f8162000285565b8114620002ab57600080fd5b50565b600081519050620002bf8162000294565b92915050565b6000819050919050565b620002da81620002c5565b8114620002e657600080fd5b50565b600081519050620002fa81620002cf565b92915050565b60008060008060008060c0878903121562000320576200031f6200021b565b5b60006200033089828a016200026e565b96505060206200034389828a016200026e565b95505060406200035689828a016200026e565b94505060606200036989828a01620002ae565b93505060806200037c89828a016200026e565b92505060a06200038f89828a01620002e9565b9150509295509295509295565b600081905092915050565b7f636f6e74726163742e6164647265737300000000000000000000000000000000600082015250565b6000620003df6010836200039c565b9150620003ec82620003a7565b601082019050919050565b7f726f636b6574546f6b656e524554480000000000000000000000000000000000600082015250565b60006200042f600f836200039c565b91506200043c82620003f7565b600f82019050919050565b60006200045482620003d0565b9150620004618262000420565b9150819050919050565b6200047681620002c5565b82525050565b60006020820190506200049360008301846200046b565b92915050565b600060208284031215620004b257620004b16200021b565b5b6000620004c2848285016200026e565b91505092915050565b60805160a05160c05160e05161010051610120516101405161264c620005ea60003960008181610759015281816107de0152818161082a01528181610e0b01528181610e5701528181610e8701528181610ec301526110e001526000818161036601528181610419015281816107ff0152818161084b0152818161087f01528181610b7901528181610c2901528181610d3601528181610dea01528181610e360152818161110401528181611606015281816116b10152611775015260008181611128015261130c01526000818161019e0152818161147f01526114a6015260006111a001526000818161098f0152818161121b01526112420152600081816101c401528181610295015281816109b50152610a86015261264c6000f3fe6080604052600436106100745760003560e01c8063a824ae8b1161004e578063a824ae8b146100f2578063ad5c46481461011b578063ca8aa0e414610146578063dbbb64b9146101715761007b565b8063158274a51461008057806355362f4d146100ab578063735de9f7146100c75761007b565b3661007b57005b600080fd5b34801561008c57600080fd5b5061009561019c565b6040516100a29190611aa5565b60405180910390f35b6100c560048036038101906100c09190611afb565b6101c0565b005b3480156100d357600080fd5b506100dc61098d565b6040516100e99190611b83565b60405180910390f35b3480156100fe57600080fd5b5061011960048036038101906101149190611b9e565b6109b1565b005b34801561012757600080fd5b506101306110de565b60405161013d9190611c3a565b60405180910390f35b34801561015257600080fd5b5061015b611102565b6040516101689190611c76565b60405180910390f35b34801561017d57600080fd5b50610186611126565b6040516101939190611caa565b60405180910390f35b7f000000000000000000000000000000000000000000000000000000000000000081565b60007f000000000000000000000000000000000000000000000000000000000000000073ffffffffffffffffffffffffffffffffffffffff166321f8a72160405160200161020d90611d68565b604051602081830303815290604052805190602001206040518263ffffffff1660e01b815260040161023f9190611caa565b60206040518083038186803b15801561025757600080fd5b505afa15801561026b573d6000803e3d6000fd5b505050506040513d601f19601f8201168201806040525081019061028f9190611dc6565b905060007f000000000000000000000000000000000000000000000000000000000000000073ffffffffffffffffffffffffffffffffffffffff166321f8a7216040516020016102de90611e3f565b604051602081830303815290604052805190602001206040518263ffffffff1660e01b81526004016103109190611caa565b60206040518083038186803b15801561032857600080fd5b505afa15801561033c573d6000803e3d6000fd5b505050506040513d601f19601f820116820180604052508101906103609190611dc6565b905060007f000000000000000000000000000000000000000000000000000000000000000073ffffffffffffffffffffffffffffffffffffffff166370a08231336040518263ffffffff1660e01b81526004016103bd9190611e6e565b60206040518083038186803b1580156103d557600080fd5b505afa1580156103e9573d6000803e3d6000fd5b505050506040513d601f19601f8201168201806040525081019061040d9190611e9e565b905060003490506000857f000000000000000000000000000000000000000000000000000000000000000073ffffffffffffffffffffffffffffffffffffffff16634346f03e346040518263ffffffff1660e01b81526004016104709190611eda565b60206040518083038186803b15801561048857600080fd5b505afa15801561049c573d6000803e3d6000fd5b505050506040513d601f19601f820116820180604052508101906104c09190611e9e565b1061071c5760008473ffffffffffffffffffffffffffffffffffffffff16636ada78476040518163ffffffff1660e01b815260040160206040518083038186803b15801561050d57600080fd5b505afa158015610521573d6000803e3d6000fd5b505050506040513d601f19601f820116820180604052508101906105459190611f2d565b9050801561071a5760008673ffffffffffffffffffffffffffffffffffffffff166312065fe06040518163ffffffff1660e01b815260040160206040518083038186803b15801561059557600080fd5b505afa1580156105a9573d6000803e3d6000fd5b505050506040513d601f19601f820116820180604052508101906105cd9190611e9e565b905060008673ffffffffffffffffffffffffffffffffffffffff1663fd6ce89e6040518163ffffffff1660e01b815260040160206040518083038186803b15801561061757600080fd5b505afa15801561062b573d6000803e3d6000fd5b505050506040513d601f19601f8201168201806040525081019061064f9190611e9e565b9050808210156107175760008773ffffffffffffffffffffffffffffffffffffffff1663035cf1426040518163ffffffff1660e01b815260040160206040518083038186803b1580156106a157600080fd5b505afa1580156106b5573d6000803e3d6000fd5b505050506040513d601f19601f820116820180604052508101906106d99190611e9e565b905082826106e79190611f89565b9450348511156106f5573494505b808510156107065760009450610715565b84866107129190611f89565b95505b505b50505b505b6000888a61072a9190611fbd565b90506000818b8561073b9190612013565b610745919061209c565b9050600081856107559190611f89565b90507f000000000000000000000000000000000000000000000000000000000000000073ffffffffffffffffffffffffffffffffffffffff1663d0e30db0866040518263ffffffff1660e01b81526004016000604051808303818588803b1580156107bf57600080fd5b505af11580156107d3573d6000803e3d6000fd5b5050505050610824827f00000000000000000000000000000000000000000000000000000000000000007f00000000000000000000000000000000000000000000000000000000000000003361114a565b610870817f00000000000000000000000000000000000000000000000000000000000000007f0000000000000000000000000000000000000000000000000000000000000000336112f4565b61087b888533611560565b60007f000000000000000000000000000000000000000000000000000000000000000073ffffffffffffffffffffffffffffffffffffffff166370a08231336040518263ffffffff1660e01b81526004016108d69190611e6e565b60206040518083038186803b1580156108ee57600080fd5b505afa158015610902573d6000803e3d6000fd5b505050506040513d601f19601f820116820180604052508101906109269190611e9e565b9050600087826109369190611f89565b90508b81101561097d57806040517f29bd16e00000000000000000000000000000000000000000000000000000000081526004016109749190611eda565b60405180910390fd5b5050505050505050505050505050565b7f000000000000000000000000000000000000000000000000000000000000000081565b60007f000000000000000000000000000000000000000000000000000000000000000073ffffffffffffffffffffffffffffffffffffffff166321f8a7216040516020016109fe90611d68565b604051602081830303815290604052805190602001206040518263ffffffff1660e01b8152600401610a309190611caa565b60206040518083038186803b158015610a4857600080fd5b505afa158015610a5c573d6000803e3d6000fd5b505050506040513d601f19601f82011682018060405250810190610a809190611dc6565b905060007f000000000000000000000000000000000000000000000000000000000000000073ffffffffffffffffffffffffffffffffffffffff166321f8a721604051602001610acf90611e3f565b604051602081830303815290604052805190602001206040518263ffffffff1660e01b8152600401610b019190611caa565b60206040518083038186803b158015610b1957600080fd5b505afa158015610b2d573d6000803e3d6000fd5b505050506040513d601f19601f82011682018060405250810190610b519190611dc6565b905060003373ffffffffffffffffffffffffffffffffffffffff1631905060008490506000867f000000000000000000000000000000000000000000000000000000000000000073ffffffffffffffffffffffffffffffffffffffff16638b32fa23886040518263ffffffff1660e01b8152600401610bd09190611eda565b60206040518083038186803b158015610be857600080fd5b505afa158015610bfc573d6000803e3d6000fd5b505050506040513d601f19601f82011682018060405250810190610c209190611e9e565b10610cf95760007f000000000000000000000000000000000000000000000000000000000000000073ffffffffffffffffffffffffffffffffffffffff1663d6eb59106040518163ffffffff1660e01b815260040160206040518083038186803b158015610c8d57600080fd5b505afa158015610ca1573d6000803e3d6000fd5b505050506040513d601f19601f82011682018060405250810190610cc59190611e9e565b90506000811115610cf75780871115610cee578091508187610ce79190611f89565b9250610cf6565b869150600092505b5b505b6000898b610d079190611fbd565b90506000818c85610d189190612013565b610d22919061209c565b905060008185610d329190611f89565b90507f000000000000000000000000000000000000000000000000000000000000000073ffffffffffffffffffffffffffffffffffffffff166323b872dd33308c6040518463ffffffff1660e01b8152600401610d91939291906120cd565b602060405180830381600087803b158015610dab57600080fd5b505af1158015610dbf573d6000803e3d6000fd5b505050506040513d601f19601f82011682018060405250810190610de39190611f2d565b50610e30827f00000000000000000000000000000000000000000000000000000000000000007f00000000000000000000000000000000000000000000000000000000000000003061114a565b610e7c817f00000000000000000000000000000000000000000000000000000000000000007f0000000000000000000000000000000000000000000000000000000000000000306112f4565b610e8584611765565b7f000000000000000000000000000000000000000000000000000000000000000073ffffffffffffffffffffffffffffffffffffffff16632e1a7d4d7f000000000000000000000000000000000000000000000000000000000000000073ffffffffffffffffffffffffffffffffffffffff166370a08231306040518263ffffffff1660e01b8152600401610f1a9190611e6e565b60206040518083038186803b158015610f3257600080fd5b505afa158015610f46573d6000803e3d6000fd5b505050506040513d601f19601f82011682018060405250810190610f6a9190611e9e565b6040518263ffffffff1660e01b8152600401610f869190611eda565b600060405180830381600087803b158015610fa057600080fd5b505af1158015610fb4573d6000803e3d6000fd5b5050505060003373ffffffffffffffffffffffffffffffffffffffff1647604051610fde90612135565b60006040518083038185875af1925050503d806000811461101b576040519150601f19603f3d011682016040523d82523d6000602084013e611020565b606091505b505090508061105b576040517f90b8ec1800000000000000000000000000000000000000000000000000000000815260040160405180910390fd5b60003373ffffffffffffffffffffffffffffffffffffffff16319050600088826110859190611f89565b90508d8110156110cc57806040517f29bd16e00000000000000000000000000000000000000000000000000000000081526004016110c39190611eda565b60405180910390fd5b50505050505050505050505050505050565b7f000000000000000000000000000000000000000000000000000000000000000081565b7f000000000000000000000000000000000000000000000000000000000000000081565b7f000000000000000000000000000000000000000000000000000000000000000081565b6000841415611158576112ee565b60006040518061010001604052808573ffffffffffffffffffffffffffffffffffffffff1681526020018473ffffffffffffffffffffffffffffffffffffffff1681526020017f000000000000000000000000000000000000000000000000000000000000000062ffffff1681526020018373ffffffffffffffffffffffffffffffffffffffff16815260200142815260200186815260200160008152602001600073ffffffffffffffffffffffffffffffffffffffff168152509050611240847f000000000000000000000000000000000000000000000000000000000000000087611802565b7f000000000000000000000000000000000000000000000000000000000000000073ffffffffffffffffffffffffffffffffffffffff1663414bf389826040518263ffffffff1660e01b81526004016112999190612237565b602060405180830381600087803b1580156112b357600080fd5b505af11580156112c7573d6000803e3d6000fd5b505050506040513d601f19601f820116820180604052508101906112eb9190611e9e565b50505b50505050565b60008414156113025761155a565b61130a611957565b7f000000000000000000000000000000000000000000000000000000000000000081600001818152505060008160200190600181111561134d5761134c612253565b5b9081600181111561136157611360612253565b5b8152505083816040019073ffffffffffffffffffffffffffffffffffffffff16908173ffffffffffffffffffffffffffffffffffffffff168152505082816060019073ffffffffffffffffffffffffffffffffffffffff16908173ffffffffffffffffffffffffffffffffffffffff1681525050848160800181815250506113e76119ce565b30816000019073ffffffffffffffffffffffffffffffffffffffff16908173ffffffffffffffffffffffffffffffffffffffff168152505082816040019073ffffffffffffffffffffffffffffffffffffffff16908173ffffffffffffffffffffffffffffffffffffffff1681525050600081602001901515908115158152505060008160600190151590811515815250506114a4857f000000000000000000000000000000000000000000000000000000000000000088611802565b7f000000000000000000000000000000000000000000000000000000000000000073ffffffffffffffffffffffffffffffffffffffff166352bbbe2983836000426040518563ffffffff1660e01b815260040161150494939291906124dc565b602060405180830381600087803b15801561151e57600080fd5b505af1158015611532573d6000803e3d6000fd5b505050506040513d601f19601f820116820180604052508101906115569190611e9e565b5050505b50505050565b600082141561156e57611760565b8273ffffffffffffffffffffffffffffffffffffffff1663d0e30db0836040518263ffffffff1660e01b81526004016000604051808303818588803b1580156115b657600080fd5b505af11580156115ca573d6000803e3d6000fd5b50505050503073ffffffffffffffffffffffffffffffffffffffff168173ffffffffffffffffffffffffffffffffffffffff161461175f5760007f000000000000000000000000000000000000000000000000000000000000000073ffffffffffffffffffffffffffffffffffffffff166370a08231306040518263ffffffff1660e01b815260040161165d9190611e6e565b60206040518083038186803b15801561167557600080fd5b505afa158015611689573d6000803e3d6000fd5b505050506040513d601f19601f820116820180604052508101906116ad9190611e9e565b90507f000000000000000000000000000000000000000000000000000000000000000073ffffffffffffffffffffffffffffffffffffffff1663a9059cbb83836040518363ffffffff1660e01b815260040161170a929190612528565b602060405180830381600087803b15801561172457600080fd5b505af1158015611738573d6000803e3d6000fd5b505050506040513d601f19601f8201168201806040525081019061175c9190611f2d565b50505b5b505050565b6000811415611773576117ff565b7f000000000000000000000000000000000000000000000000000000000000000073ffffffffffffffffffffffffffffffffffffffff166342966c68826040518263ffffffff1660e01b81526004016117cc9190611eda565b600060405180830381600087803b1580156117e657600080fd5b505af11580156117fa573d6000803e3d6000fd5b505050505b50565b6000808473ffffffffffffffffffffffffffffffffffffffff1663095ea7b360e01b8585604051602401611837929190612528565b604051602081830303815290604052907bffffffffffffffffffffffffffffffffffffffffffffffffffffffff19166020820180517bffffffffffffffffffffffffffffffffffffffffffffffffffffffff83818316178352505050506040516118a19190612582565b6000604051808303816000865af19150503d80600081146118de576040519150601f19603f3d011682016040523d82523d6000602084013e6118e3565b606091505b5091509150818015611911575060008151148061191057508080602001905181019061190f9190611f2d565b5b5b611950576040517f08c379a0000000000000000000000000000000000000000000000000000000008152600401611947906125f6565b60405180910390fd5b5050505050565b6040518060c0016040528060008019168152602001600060018111156119805761197f612253565b5b8152602001600073ffffffffffffffffffffffffffffffffffffffff168152602001600073ffffffffffffffffffffffffffffffffffffffff16815260200160008152602001606081525090565b6040518060800160405280600073ffffffffffffffffffffffffffffffffffffffff168152602001600015158152602001600073ffffffffffffffffffffffffffffffffffffffff1681526020016000151581525090565b600073ffffffffffffffffffffffffffffffffffffffff82169050919050565b6000819050919050565b6000611a6b611a66611a6184611a26565b611a46565b611a26565b9050919050565b6000611a7d82611a50565b9050919050565b6000611a8f82611a72565b9050919050565b611a9f81611a84565b82525050565b6000602082019050611aba6000830184611a96565b92915050565b600080fd5b6000819050919050565b611ad881611ac5565b8114611ae357600080fd5b50565b600081359050611af581611acf565b92915050565b60008060008060808587031215611b1557611b14611ac0565b5b6000611b2387828801611ae6565b9450506020611b3487828801611ae6565b9350506040611b4587828801611ae6565b9250506060611b5687828801611ae6565b91505092959194509250565b6000611b6d82611a72565b9050919050565b611b7d81611b62565b82525050565b6000602082019050611b986000830184611b74565b92915050565b600080600080600060a08688031215611bba57611bb9611ac0565b5b6000611bc888828901611ae6565b9550506020611bd988828901611ae6565b9450506040611bea88828901611ae6565b9350506060611bfb88828901611ae6565b9250506080611c0c88828901611ae6565b9150509295509295909350565b6000611c2482611a72565b9050919050565b611c3481611c19565b82525050565b6000602082019050611c4f6000830184611c2b565b92915050565b6000611c6082611a72565b9050919050565b611c7081611c55565b82525050565b6000602082019050611c8b6000830184611c67565b92915050565b6000819050919050565b611ca481611c91565b82525050565b6000602082019050611cbf6000830184611c9b565b92915050565b600081905092915050565b7f636f6e74726163742e6164647265737300000000000000000000000000000000600082015250565b6000611d06601083611cc5565b9150611d1182611cd0565b601082019050919050565b7f726f636b65744465706f736974506f6f6c000000000000000000000000000000600082015250565b6000611d52601183611cc5565b9150611d5d82611d1c565b601182019050919050565b6000611d7382611cf9565b9150611d7e82611d45565b9150819050919050565b6000611d9382611a26565b9050919050565b611da381611d88565b8114611dae57600080fd5b50565b600081519050611dc081611d9a565b92915050565b600060208284031215611ddc57611ddb611ac0565b5b6000611dea84828501611db1565b91505092915050565b7f726f636b657444414f50726f746f636f6c53657474696e67734465706f736974600082015250565b6000611e29602083611cc5565b9150611e3482611df3565b602082019050919050565b6000611e4a82611cf9565b9150611e5582611e1c565b9150819050919050565b611e6881611d88565b82525050565b6000602082019050611e836000830184611e5f565b92915050565b600081519050611e9881611acf565b92915050565b600060208284031215611eb457611eb3611ac0565b5b6000611ec284828501611e89565b91505092915050565b611ed481611ac5565b82525050565b6000602082019050611eef6000830184611ecb565b92915050565b60008115159050919050565b611f0a81611ef5565b8114611f1557600080fd5b50565b600081519050611f2781611f01565b92915050565b600060208284031215611f4357611f42611ac0565b5b6000611f5184828501611f18565b91505092915050565b7f4e487b7100000000000000000000000000000000000000000000000000000000600052601160045260246000fd5b6000611f9482611ac5565b9150611f9f83611ac5565b925082821015611fb257611fb1611f5a565b5b828203905092915050565b6000611fc882611ac5565b9150611fd383611ac5565b9250827fffffffffffffffffffffffffffffffffffffffffffffffffffffffffffffffff0382111561200857612007611f5a565b5b828201905092915050565b600061201e82611ac5565b915061202983611ac5565b9250817fffffffffffffffffffffffffffffffffffffffffffffffffffffffffffffffff048311821515161561206257612061611f5a565b5b828202905092915050565b7f4e487b7100000000000000000000000000000000000000000000000000000000600052601260045260246000fd5b60006120a782611ac5565b91506120b283611ac5565b9250826120c2576120c161206d565b5b828204905092915050565b60006060820190506120e26000830186611e5f565b6120ef6020830185611e5f565b6120fc6040830184611ecb565b949350505050565b600081905092915050565b50565b600061211f600083612104565b915061212a8261210f565b600082019050919050565b600061214082612112565b9150819050919050565b61215381611d88565b82525050565b600062ffffff82169050919050565b61217181612159565b82525050565b61218081611ac5565b82525050565b61218f81611a26565b82525050565b610100820160008201516121ac600085018261214a565b5060208201516121bf602085018261214a565b5060408201516121d26040850182612168565b5060608201516121e5606085018261214a565b5060808201516121f86080850182612177565b5060a082015161220b60a0850182612177565b5060c082015161221e60c0850182612177565b5060e082015161223160e0850182612186565b50505050565b60006101008201905061224d6000830184612195565b92915050565b7f4e487b7100000000000000000000000000000000000000000000000000000000600052602160045260246000fd5b61228b81611c91565b82525050565b600281106122a2576122a1612253565b5b50565b60008190506122b382612291565b919050565b60006122c3826122a5565b9050919050565b6122d3816122b8565b82525050565b60006122e482611a72565b9050919050565b6122f4816122d9565b82525050565b600081519050919050565b600082825260208201905092915050565b60005b83811015612334578082015181840152602081019050612319565b83811115612343576000848401525b50505050565b6000601f19601f8301169050919050565b6000612365826122fa565b61236f8185612305565b935061237f818560208601612316565b61238881612349565b840191505092915050565b600060c0830160008301516123ab6000860182612282565b5060208301516123be60208601826122ca565b5060408301516123d160408601826122eb565b5060608301516123e460608601826122eb565b5060808301516123f76080860182612177565b5060a083015184820360a086015261240f828261235a565b9150508091505092915050565b61242581611ef5565b82525050565b600061243682611a26565b9050919050565b6124468161242b565b82525050565b608082016000820151612462600085018261214a565b506020820151612475602085018261241c565b506040820151612488604085018261243d565b50606082015161249b606085018261241c565b50505050565b6000819050919050565b60006124c66124c16124bc846124a1565b611a46565b611ac5565b9050919050565b6124d6816124ab565b82525050565b600060e08201905081810360008301526124f68187612393565b9050612505602083018661244c565b61251260a08301856124cd565b61251f60c0830184611ecb565b95945050505050565b600060408201905061253d6000830185611e5f565b61254a6020830184611ecb565b9392505050565b600061255c826122fa565b6125668185612104565b9350612576818560208601612316565b80840191505092915050565b600061258e8284612551565b915081905092915050565b600082825260208201905092915050565b7f5341000000000000000000000000000000000000000000000000000000000000600082015250565b60006125e0600283612599565b91506125eb826125aa565b602082019050919050565b6000602082019050818103600083015261260f816125d3565b905091905056fea2646970667358221220b4ed878e59fc51c5190c8016d2ffbbb818e4a506c6de90b3c7f551dab3836db764736f6c63430008090033",
  "linkReferences": {},
  "deployedLinkReferences": {}
}