{
  "_format": "hh-sol-artifact-1",
  "contractName": "RocketSwapRouter",
  "sourceName": "contracts/RocketSwapRouter.sol",
  "abi": [
    {
      "inputs": [
        {
          "internalType": "address",
          "name": "_rocketStorage",
          "type": "address"
        },
        {
          "internalType": "address",
          "name": "_wethAddress",
          "type": "address"
        },
        {
          "internalType": "address",
          "name": "_uniswapRouter",
          "type": "address"
        },
        {
          "internalType": "uint24",
          "name": "_uniswapPoolFee",
          "type": "uint24"
        },
        {
          "internalType": "address",
          "name": "_uniswapQuoter",
          "type": "address"
        },
        {
          "internalType": "address",
          "name": "_balancerVault",
          "type": "address"
        },
        {
          "internalType": "bytes32",
          "name": "_balancerPoolId",
          "type": "bytes32"
        }
      ],
      "stateMutability": "nonpayable",
      "type": "constructor"
    },
    {
      "inputs": [
        {
          "internalType": "uint256",
          "name": "amountOut",
          "type": "uint256"
        }
      ],
      "name": "LessThanMinimum",
      "type": "error"
    },
    {
      "inputs": [],
      "name": "TransferFailed",
      "type": "error"
    },
    {
      "inputs": [],
      "name": "WETH",
      "outputs": [
        {
          "internalType": "contract IWETH",
          "name": "",
          "type": "address"
        }
      ],
      "stateMutability": "view",
      "type": "function"
    },
    {
      "inputs": [],
      "name": "balancerPoolId",
      "outputs": [
        {
          "internalType": "bytes32",
          "name": "",
          "type": "bytes32"
        }
      ],
      "stateMutability": "view",
      "type": "function"
    },
    {
      "inputs": [],
      "name": "balancerVault",
      "outputs": [
        {
          "internalType": "contract IVault",
          "name": "",
          "type": "address"
        }
      ],
      "stateMutability": "view",
      "type": "function"
    },
    {
      "inputs": [
        {
          "internalType": "uint256",
          "name": "_amount",
          "type": "uint256"
        },
        {
          "internalType": "uint256",
          "name": "_steps",
          "type": "uint256"
        }
      ],
      "name": "optimiseSwapFrom",
      "outputs": [
        {
          "internalType": "uint256[2]",
          "name": "portions",
          "type": "uint256[2]"
        },
        {
          "internalType": "uint256",
          "name": "amountOut",
          "type": "uint256"
        }
      ],
      "stateMutability": "nonpayable",
      "type": "function"
    },
    {
      "inputs": [
        {
          "internalType": "uint256",
          "name": "_amount",
          "type": "uint256"
        },
        {
          "internalType": "uint256",
          "name": "_steps",
          "type": "uint256"
        }
      ],
      "name": "optimiseSwapTo",
      "outputs": [
        {
          "internalType": "uint256[2]",
          "name": "portions",
          "type": "uint256[2]"
        },
        {
          "internalType": "uint256",
          "name": "amountOut",
          "type": "uint256"
        }
      ],
      "stateMutability": "nonpayable",
      "type": "function"
    },
    {
      "inputs": [],
      "name": "rETH",
      "outputs": [
        {
          "internalType": "contract IrETH",
          "name": "",
          "type": "address"
        }
      ],
      "stateMutability": "view",
      "type": "function"
    },
    {
      "inputs": [
        {
          "internalType": "address",
          "name": "targetContract",
          "type": "address"
        },
        {
          "internalType": "bytes",
          "name": "calldataPayload",
          "type": "bytes"
        }
      ],
      "name": "simulate",
      "outputs": [
        {
          "internalType": "bytes",
          "name": "response",
          "type": "bytes"
        }
      ],
      "stateMutability": "nonpayable",
      "type": "function"
    },
    {
      "inputs": [
        {
          "internalType": "address",
          "name": "targetContract",
          "type": "address"
        },
        {
          "internalType": "bytes",
          "name": "calldataPayload",
          "type": "bytes"
        }
      ],
      "name": "simulateAndRevert",
      "outputs": [],
      "stateMutability": "nonpayable",
      "type": "function"
    },
    {
      "inputs": [
        {
          "internalType": "uint256",
          "name": "_uniswapPortion",
          "type": "uint256"
        },
        {
          "internalType": "uint256",
          "name": "_balancerPortion",
          "type": "uint256"
        },
        {
          "internalType": "uint256",
          "name": "_minTokensOut",
          "type": "uint256"
        },
        {
          "internalType": "uint256",
          "name": "_idealTokensOut",
          "type": "uint256"
        },
        {
          "internalType": "uint256",
          "name": "_tokensIn",
          "type": "uint256"
        }
      ],
      "name": "swapFrom",
      "outputs": [],
      "stateMutability": "nonpayable",
      "type": "function"
    },
    {
      "inputs": [
        {
          "internalType": "uint256",
          "name": "_uniswapPortion",
          "type": "uint256"
        },
        {
          "internalType": "uint256",
          "name": "_balancerPortion",
          "type": "uint256"
        },
        {
          "internalType": "uint256",
          "name": "_minTokensOut",
          "type": "uint256"
        },
        {
          "internalType": "uint256",
          "name": "_idealTokensOut",
          "type": "uint256"
        }
      ],
      "name": "swapTo",
      "outputs": [],
      "stateMutability": "payable",
      "type": "function"
    },
    {
      "inputs": [],
      "name": "uniswapQuoter",
      "outputs": [
        {
          "internalType": "contract IQuoter",
          "name": "",
          "type": "address"
        }
      ],
      "stateMutability": "view",
      "type": "function"
    },
    {
      "inputs": [],
      "name": "uniswapRouter",
      "outputs": [
        {
          "internalType": "contract ISwapRouter",
          "name": "",
          "type": "address"
        }
      ],
      "stateMutability": "view",
      "type": "function"
    },
    {
      "stateMutability": "payable",
      "type": "receive"
    }
  ],
  "bytecode": "0x6101806040523480156200001257600080fd5b506040516200411b3803806200411b833981810160405281019062000038919062000336565b8673ffffffffffffffffffffffffffffffffffffffff1660808173ffffffffffffffffffffffffffffffffffffffff168152505060805173ffffffffffffffffffffffffffffffffffffffff166321f8a7216040516020016200009b9062000494565b604051602081830303815290604052805190602001206040518263ffffffff1660e01b8152600401620000cf9190620004c9565b60206040518083038186803b158015620000e857600080fd5b505afa158015620000fd573d6000803e3d6000fd5b505050506040513d601f19601f82011682018060405250810190620001239190620004e6565b73ffffffffffffffffffffffffffffffffffffffff166101408173ffffffffffffffffffffffffffffffffffffffff16815250508573ffffffffffffffffffffffffffffffffffffffff166101608173ffffffffffffffffffffffffffffffffffffffff16815250508473ffffffffffffffffffffffffffffffffffffffff1660a08173ffffffffffffffffffffffffffffffffffffffff16815250508273ffffffffffffffffffffffffffffffffffffffff1660c08173ffffffffffffffffffffffffffffffffffffffff16815250508362ffffff1660e08162ffffff16815250508173ffffffffffffffffffffffffffffffffffffffff166101008173ffffffffffffffffffffffffffffffffffffffff16815250508061012081815250505050505050505062000518565b600080fd5b600073ffffffffffffffffffffffffffffffffffffffff82169050919050565b6000620002838262000256565b9050919050565b620002958162000276565b8114620002a157600080fd5b50565b600081519050620002b5816200028a565b92915050565b600062ffffff82169050919050565b620002d581620002bb565b8114620002e157600080fd5b50565b600081519050620002f581620002ca565b92915050565b6000819050919050565b6200031081620002fb565b81146200031c57600080fd5b50565b600081519050620003308162000305565b92915050565b600080600080600080600060e0888a03121562000358576200035762000251565b5b6000620003688a828b01620002a4565b97505060206200037b8a828b01620002a4565b96505060406200038e8a828b01620002a4565b9550506060620003a18a828b01620002e4565b9450506080620003b48a828b01620002a4565b93505060a0620003c78a828b01620002a4565b92505060c0620003da8a828b016200031f565b91505092959891949750929550565b600081905092915050565b7f636f6e74726163742e6164647265737300000000000000000000000000000000600082015250565b60006200042c601083620003e9565b91506200043982620003f4565b601082019050919050565b7f726f636b6574546f6b656e524554480000000000000000000000000000000000600082015250565b60006200047c600f83620003e9565b9150620004898262000444565b600f82019050919050565b6000620004a1826200041d565b9150620004ae826200046d565b9150819050919050565b620004c381620002fb565b82525050565b6000602082019050620004e06000830184620004b8565b92915050565b600060208284031215620004ff57620004fe62000251565b5b60006200050f84828501620002a4565b91505092915050565b60805160a05160c05160e05161010051610120516101405161016051613aa86200067360003960008181610313015281816103950152818161098301528181610a0801528181610a5401528181610e9301528181610edf01528181610f0f01528181610f4b015261116601526000818161033401528181610374015281816105900152818161064301528181610a2901528181610a7501528181610aa901528181610c0101528181610cb101528181610dbe01528181610e7201528181610ebe0152818161128701528181611e2601528181611ed10152611f950152600081816112ab0152818161138d0152611b2c0152600081816102e201528181611c9f01528181611cc6015261221d01526000818161158a0152818161188d01526119c00152600081816103c801526120c5015260008181610bb901528181611a3b0152611a620152600081816103ee01526104bf0152613aa86000f3fe6080604052600436106100ab5760003560e01c8063a824ae8b11610064578063a824ae8b146101d0578063ad5c4648146101f9578063b4faba0914610224578063bd61951d1461024d578063ca8aa0e41461028a578063dbbb64b9146102b5576100b2565b8063158274a5146100b757806327e04163146100e25780632f18e2af146101205780634db4a3521461015e57806355362f4d14610189578063735de9f7146101a5576100b2565b366100b257005b600080fd5b3480156100c357600080fd5b506100cc6102e0565b6040516100d991906125f4565b60405180910390f35b3480156100ee57600080fd5b5061010960048036038101906101049190612659565b610304565b604051610117929190612753565b60405180910390f35b34801561012c57600080fd5b5061014760048036038101906101429190612659565b610365565b604051610155929190612753565b60405180910390f35b34801561016a57600080fd5b506101736103c6565b604051610180919061279d565b60405180910390f35b6101a3600480360381019061019e91906127b8565b6103ea565b005b3480156101b157600080fd5b506101ba610bb7565b6040516101c79190612840565b60405180910390f35b3480156101dc57600080fd5b506101f760048036038101906101f2919061285b565b610bdb565b005b34801561020557600080fd5b5061020e611164565b60405161021b91906128f7565b60405180910390f35b34801561023057600080fd5b5061024b60048036038101906102469190612a96565b611188565b005b34801561025957600080fd5b50610274600480360381019061026f9190612a96565b6111e4565b6040516102819190612b7a565b60405180910390f35b34801561029657600080fd5b5061029f611285565b6040516102ac9190612bbd565b60405180910390f35b3480156102c157600080fd5b506102ca6112a9565b6040516102d79190612bf1565b60405180910390f35b7f000000000000000000000000000000000000000000000000000000000000000081565b61030c612452565b600061035a7f00000000000000000000000000000000000000000000000000000000000000007f000000000000000000000000000000000000000000000000000000000000000086866112cd565b915091509250929050565b61036d612452565b60006103bb7f00000000000000000000000000000000000000000000000000000000000000007f000000000000000000000000000000000000000000000000000000000000000086866112cd565b915091509250929050565b7f000000000000000000000000000000000000000000000000000000000000000081565b60007f000000000000000000000000000000000000000000000000000000000000000073ffffffffffffffffffffffffffffffffffffffff166321f8a72160405160200161043790612caf565b604051602081830303815290604052805190602001206040518263ffffffff1660e01b81526004016104699190612bf1565b60206040518083038186803b15801561048157600080fd5b505afa158015610495573d6000803e3d6000fd5b505050506040513d601f19601f820116820180604052508101906104b99190612ce4565b905060007f000000000000000000000000000000000000000000000000000000000000000073ffffffffffffffffffffffffffffffffffffffff166321f8a72160405160200161050890612d5d565b604051602081830303815290604052805190602001206040518263ffffffff1660e01b815260040161053a9190612bf1565b60206040518083038186803b15801561055257600080fd5b505afa158015610566573d6000803e3d6000fd5b505050506040513d601f19601f8201168201806040525081019061058a9190612ce4565b905060007f000000000000000000000000000000000000000000000000000000000000000073ffffffffffffffffffffffffffffffffffffffff166370a08231336040518263ffffffff1660e01b81526004016105e79190612d8c565b60206040518083038186803b1580156105ff57600080fd5b505afa158015610613573d6000803e3d6000fd5b505050506040513d601f19601f820116820180604052508101906106379190612dbc565b905060003490506000857f000000000000000000000000000000000000000000000000000000000000000073ffffffffffffffffffffffffffffffffffffffff16634346f03e346040518263ffffffff1660e01b815260040161069a9190612de9565b60206040518083038186803b1580156106b257600080fd5b505afa1580156106c6573d6000803e3d6000fd5b505050506040513d601f19601f820116820180604052508101906106ea9190612dbc565b106109465760008473ffffffffffffffffffffffffffffffffffffffff16636ada78476040518163ffffffff1660e01b815260040160206040518083038186803b15801561073757600080fd5b505afa15801561074b573d6000803e3d6000fd5b505050506040513d601f19601f8201168201806040525081019061076f9190612e3c565b905080156109445760008673ffffffffffffffffffffffffffffffffffffffff166312065fe06040518163ffffffff1660e01b815260040160206040518083038186803b1580156107bf57600080fd5b505afa1580156107d3573d6000803e3d6000fd5b505050506040513d601f19601f820116820180604052508101906107f79190612dbc565b905060008673ffffffffffffffffffffffffffffffffffffffff1663fd6ce89e6040518163ffffffff1660e01b815260040160206040518083038186803b15801561084157600080fd5b505afa158015610855573d6000803e3d6000fd5b505050506040513d601f19601f820116820180604052508101906108799190612dbc565b9050808210156109415760008773ffffffffffffffffffffffffffffffffffffffff1663035cf1426040518163ffffffff1660e01b815260040160206040518083038186803b1580156108cb57600080fd5b505afa1580156108df573d6000803e3d6000fd5b505050506040513d601f19601f820116820180604052508101906109039190612dbc565b905082826109119190612e98565b94503485111561091f573494505b80851015610930576000945061093f565b848661093c9190612e98565b95505b505b50505b505b6000888a6109549190612ecc565b90506000818b856109659190612f22565b61096f9190612fab565b90506000818561097f9190612e98565b90507f000000000000000000000000000000000000000000000000000000000000000073ffffffffffffffffffffffffffffffffffffffff1663d0e30db0866040518263ffffffff1660e01b81526004016000604051808303818588803b1580156109e957600080fd5b505af11580156109fd573d6000803e3d6000fd5b5050505050610a4e827f00000000000000000000000000000000000000000000000000000000000000007f00000000000000000000000000000000000000000000000000000000000000003361196a565b610a9a817f00000000000000000000000000000000000000000000000000000000000000007f000000000000000000000000000000000000000000000000000000000000000033611b14565b610aa5888533611d80565b60007f000000000000000000000000000000000000000000000000000000000000000073ffffffffffffffffffffffffffffffffffffffff166370a08231336040518263ffffffff1660e01b8152600401610b009190612d8c565b60206040518083038186803b158015610b1857600080fd5b505afa158015610b2c573d6000803e3d6000fd5b505050506040513d601f19601f82011682018060405250810190610b509190612dbc565b905060008782610b609190612e98565b90508b811015610ba757806040517f29bd16e0000000000000000000000000000000000000000000000000000000008152600401610b9e9190612de9565b60405180910390fd5b5050505050505050505050505050565b7f000000000000000000000000000000000000000000000000000000000000000081565b60003373ffffffffffffffffffffffffffffffffffffffff1631905060008290506000847f000000000000000000000000000000000000000000000000000000000000000073ffffffffffffffffffffffffffffffffffffffff16638b32fa23866040518263ffffffff1660e01b8152600401610c589190612de9565b60206040518083038186803b158015610c7057600080fd5b505afa158015610c84573d6000803e3d6000fd5b505050506040513d601f19601f82011682018060405250810190610ca89190612dbc565b10610d815760007f000000000000000000000000000000000000000000000000000000000000000073ffffffffffffffffffffffffffffffffffffffff1663d6eb59106040518163ffffffff1660e01b815260040160206040518083038186803b158015610d1557600080fd5b505afa158015610d29573d6000803e3d6000fd5b505050506040513d601f19601f82011682018060405250810190610d4d9190612dbc565b90506000811115610d7f5780851115610d76578091508185610d6f9190612e98565b9250610d7e565b849150600092505b5b505b60008789610d8f9190612ecc565b90506000818a85610da09190612f22565b610daa9190612fab565b905060008185610dba9190612e98565b90507f000000000000000000000000000000000000000000000000000000000000000073ffffffffffffffffffffffffffffffffffffffff166323b872dd33308a6040518463ffffffff1660e01b8152600401610e1993929190612fdc565b602060405180830381600087803b158015610e3357600080fd5b505af1158015610e47573d6000803e3d6000fd5b505050506040513d601f19601f82011682018060405250810190610e6b9190612e3c565b50610eb8827f00000000000000000000000000000000000000000000000000000000000000007f00000000000000000000000000000000000000000000000000000000000000003061196a565b610f04817f00000000000000000000000000000000000000000000000000000000000000007f000000000000000000000000000000000000000000000000000000000000000030611b14565b610f0d84611f85565b7f000000000000000000000000000000000000000000000000000000000000000073ffffffffffffffffffffffffffffffffffffffff16632e1a7d4d7f000000000000000000000000000000000000000000000000000000000000000073ffffffffffffffffffffffffffffffffffffffff166370a08231306040518263ffffffff1660e01b8152600401610fa29190612d8c565b60206040518083038186803b158015610fba57600080fd5b505afa158015610fce573d6000803e3d6000fd5b505050506040513d601f19601f82011682018060405250810190610ff29190612dbc565b6040518263ffffffff1660e01b815260040161100e9190612de9565b600060405180830381600087803b15801561102857600080fd5b505af115801561103c573d6000803e3d6000fd5b5050505060003373ffffffffffffffffffffffffffffffffffffffff164760405161106690613044565b60006040518083038185875af1925050503d80600081146110a3576040519150601f19603f3d011682016040523d82523d6000602084013e6110a8565b606091505b50509050806110e3576040517f90b8ec1800000000000000000000000000000000000000000000000000000000815260040160405180910390fd5b60003373ffffffffffffffffffffffffffffffffffffffff163190506000888261110d9190612e98565b90508b81101561115457806040517f29bd16e000000000000000000000000000000000000000000000000000000000815260040161114b9190612de9565b60405180910390fd5b5050505050505050505050505050565b7f000000000000000000000000000000000000000000000000000000000000000081565b3073ffffffffffffffffffffffffffffffffffffffff163373ffffffffffffffffffffffffffffffffffffffff16146111c057600080fd5b6000808251602084016000865af1806000523d6020523d600060403e60403d016000fd5b60603073ffffffffffffffffffffffffffffffffffffffff163373ffffffffffffffffffffffffffffffffffffffff161461121e57600080fd5b6040517fb4faba09000000000000000000000000000000000000000000000000000000008152600436036004808301376020600036836000305af15060203d036040519250808301604052806020843e60005161127d57825160208401fd5b505092915050565b7f000000000000000000000000000000000000000000000000000000000000000081565b7f000000000000000000000000000000000000000000000000000000000000000081565b6112d5612452565b60008083856112e49190612fab565b90506000600167ffffffffffffffff8111156113035761130261296b565b5b60405190808252806020026020018201604052801561133c57816020015b611329612474565b8152602001906001900390816113215790505b50905060008160008151811061135557611354613059565b5b6020026020010151602001818152505060018160008151811061137b5761137a613059565b5b602002602001015160400181815250507f0000000000000000000000000000000000000000000000000000000000000000816000815181106113c0576113bf613059565b5b6020026020010151600001818152505081816000815181106113e5576113e4613059565b5b602002602001015160600181815250506113fd6124a6565b30816000019073ffffffffffffffffffffffffffffffffffffffff16908173ffffffffffffffffffffffffffffffffffffffff168152505030816040019073ffffffffffffffffffffffffffffffffffffffff16908173ffffffffffffffffffffffffffffffffffffffff1681525050600081602001901515908115158152505060008160600190151590811515815250506000600267ffffffffffffffff8111156114ac576114ab61296b565b5b6040519080825280602002602001820160405280156114da5781602001602082028036833780820191505090505b50905089816000815181106114f2576114f1613059565b5b602002602001019073ffffffffffffffffffffffffffffffffffffffff16908173ffffffffffffffffffffffffffffffffffffffff1681525050888160018151811061154157611540613059565b5b602002602001019073ffffffffffffffffffffffffffffffffffffffff16908173ffffffffffffffffffffffffffffffffffffffff1681525050611583612452565b6115b18b8b7f0000000000000000000000000000000000000000000000000000000000000000886000612022565b816000600281106115c5576115c4613059565b5b6020020181815250506115db600085848661217c565b816001600281106115ef576115ee613059565b5b602002018181525050611600612452565b8160006002811061161457611613613059565b5b60200201518160006002811061162d5761162c613059565b5b6020020181815250508160016002811061164a57611649613059565b5b60200201518160016002811061166357611662613059565b5b60200201818152505060008860006002811061168257611681613059565b5b6020020181815250506000886001600281106116a1576116a0613059565b5b6020020181815250506000965060005b8981101561195a57816000600281106116cd576116cc613059565b5b6020020151826001600281106116e6576116e5613059565b5b60200201511115611820578860016002811061170557611704613059565b5b60200201805180919061171790613088565b815250508160016002811061172f5761172e613059565b5b60200201518861173f9190612ecc565b975060018a61174e9190612e98565b81101561181b5760018960016002811061176b5761176a613059565b5b602002015161177a9190612ecc565b876117859190612f22565b8660008151811061179957611798613059565b5b6020026020010151606001818152505060006117b8600088878961217c565b9050836001600281106117ce576117cd613059565b5b6020020151816117de9190612e98565b836001600281106117f2576117f1613059565b5b60200201818152505080846001600281106118105761180f613059565b5b602002018181525050505b611947565b8860006002811061183457611833613059565b5b60200201805180919061184690613088565b815250508160006002811061185e5761185d613059565b5b60200201518861186e9190612ecc565b975060018a61187d9190612e98565b8110156119465760006118e38e8e7f000000000000000000000000000000000000000000000000000000000000000060018e6000600281106118c2576118c1613059565b5b60200201516118d19190612ecc565b8c6118dc9190612f22565b6000612022565b9050836000600281106118f9576118f8613059565b5b6020020151816119099190612e98565b8360006002811061191d5761191c613059565b5b602002018181525050808460006002811061193b5761193a613059565b5b602002018181525050505b5b808061195290613088565b9150506116b1565b5050505050505094509492505050565b600084141561197857611b0e565b60006040518061010001604052808573ffffffffffffffffffffffffffffffffffffffff1681526020018473ffffffffffffffffffffffffffffffffffffffff1681526020017f000000000000000000000000000000000000000000000000000000000000000062ffffff1681526020018373ffffffffffffffffffffffffffffffffffffffff16815260200142815260200186815260200160008152602001600073ffffffffffffffffffffffffffffffffffffffff168152509050611a60847f0000000000000000000000000000000000000000000000000000000000000000876122fd565b7f000000000000000000000000000000000000000000000000000000000000000073ffffffffffffffffffffffffffffffffffffffff1663414bf389826040518263ffffffff1660e01b8152600401611ab991906131af565b602060405180830381600087803b158015611ad357600080fd5b505af1158015611ae7573d6000803e3d6000fd5b505050506040513d601f19601f82011682018060405250810190611b0b9190612dbc565b50505b50505050565b6000841415611b2257611d7a565b611b2a6124fe565b7f0000000000000000000000000000000000000000000000000000000000000000816000018181525050600081602001906001811115611b6d57611b6c6131cb565b5b90816001811115611b8157611b806131cb565b5b8152505083816040019073ffffffffffffffffffffffffffffffffffffffff16908173ffffffffffffffffffffffffffffffffffffffff168152505082816060019073ffffffffffffffffffffffffffffffffffffffff16908173ffffffffffffffffffffffffffffffffffffffff168152505084816080018181525050611c076124a6565b30816000019073ffffffffffffffffffffffffffffffffffffffff16908173ffffffffffffffffffffffffffffffffffffffff168152505082816040019073ffffffffffffffffffffffffffffffffffffffff16908173ffffffffffffffffffffffffffffffffffffffff168152505060008160200190151590811515815250506000816060019015159081151581525050611cc4857f0000000000000000000000000000000000000000000000000000000000000000886122fd565b7f000000000000000000000000000000000000000000000000000000000000000073ffffffffffffffffffffffffffffffffffffffff166352bbbe2983836000426040518563ffffffff1660e01b8152600401611d249493929190613405565b602060405180830381600087803b158015611d3e57600080fd5b505af1158015611d52573d6000803e3d6000fd5b505050506040513d601f19601f82011682018060405250810190611d769190612dbc565b5050505b50505050565b6000821415611d8e57611f80565b8273ffffffffffffffffffffffffffffffffffffffff1663d0e30db0836040518263ffffffff1660e01b81526004016000604051808303818588803b158015611dd657600080fd5b505af1158015611dea573d6000803e3d6000fd5b50505050503073ffffffffffffffffffffffffffffffffffffffff168173ffffffffffffffffffffffffffffffffffffffff1614611f7f5760007f000000000000000000000000000000000000000000000000000000000000000073ffffffffffffffffffffffffffffffffffffffff166370a08231306040518263ffffffff1660e01b8152600401611e7d9190612d8c565b60206040518083038186803b158015611e9557600080fd5b505afa158015611ea9573d6000803e3d6000fd5b505050506040513d601f19601f82011682018060405250810190611ecd9190612dbc565b90507f000000000000000000000000000000000000000000000000000000000000000073ffffffffffffffffffffffffffffffffffffffff1663a9059cbb83836040518363ffffffff1660e01b8152600401611f2a929190613451565b602060405180830381600087803b158015611f4457600080fd5b505af1158015611f58573d6000803e3d6000fd5b505050506040513d601f19601f82011682018060405250810190611f7c9190612e3c565b50505b5b505050565b6000811415611f935761201f565b7f000000000000000000000000000000000000000000000000000000000000000073ffffffffffffffffffffffffffffffffffffffff166342966c68826040518263ffffffff1660e01b8152600401611fec9190612de9565b600060405180830381600087803b15801561200657600080fd5b505af115801561201a573d6000803e3d6000fd5b505050505b50565b60008063f7729d4360e01b8787878787604051602401612046959493929190613498565b604051602081830303815290604052907bffffffffffffffffffffffffffffffffffffffffffffffffffffffff19166020820180517bffffffffffffffffffffffffffffffffffffffffffffffffffffffff8381831617835250505050905060003073ffffffffffffffffffffffffffffffffffffffff1663bd61951d7f0000000000000000000000000000000000000000000000000000000000000000846040518363ffffffff1660e01b81526004016121029291906134eb565b600060405180830381600087803b15801561211c57600080fd5b505af1158015612130573d6000803e3d6000fd5b505050506040513d6000823e3d601f19601f82011682018060405250810190612159919061358b565b90508080602001905181019061216f9190612dbc565b9250505095945050505050565b60008063f84d066e60e01b8686868660405160240161219e94939291906137ca565b604051602081830303815290604052907bffffffffffffffffffffffffffffffffffffffffffffffffffffffff19166020820180517bffffffffffffffffffffffffffffffffffffffffffffffffffffffff8381831617835250505050905060003073ffffffffffffffffffffffffffffffffffffffff1663bd61951d7f0000000000000000000000000000000000000000000000000000000000000000846040518363ffffffff1660e01b815260040161225a9291906134eb565b600060405180830381600087803b15801561227457600080fd5b505af1158015612288573d6000803e3d6000fd5b505050506040513d6000823e3d601f19601f820116820180604052508101906122b1919061358b565b90506000818060200190518101906122c9919061391b565b9050806001815181106122df576122de613059565b5b60200260200101516122f090613964565b9350505050949350505050565b6000808473ffffffffffffffffffffffffffffffffffffffff1663095ea7b360e01b8585604051602401612332929190613451565b604051602081830303815290604052907bffffffffffffffffffffffffffffffffffffffffffffffffffffffff19166020820180517bffffffffffffffffffffffffffffffffffffffffffffffffffffffff838183161783525050505060405161239c91906139de565b6000604051808303816000865af19150503d80600081146123d9576040519150601f19603f3d011682016040523d82523d6000602084013e6123de565b606091505b509150915081801561240c575060008151148061240b57508080602001905181019061240a9190612e3c565b5b5b61244b576040517f08c379a000000000000000000000000000000000000000000000000000000000815260040161244290613a52565b60405180910390fd5b5050505050565b6040518060400160405280600290602082028036833780820191505090505090565b6040518060a0016040528060008019168152602001600081526020016000815260200160008152602001606081525090565b6040518060800160405280600073ffffffffffffffffffffffffffffffffffffffff168152602001600015158152602001600073ffffffffffffffffffffffffffffffffffffffff1681526020016000151581525090565b6040518060c001604052806000801916815260200160006001811115612527576125266131cb565b5b8152602001600073ffffffffffffffffffffffffffffffffffffffff168152602001600073ffffffffffffffffffffffffffffffffffffffff16815260200160008152602001606081525090565b600073ffffffffffffffffffffffffffffffffffffffff82169050919050565b6000819050919050565b60006125ba6125b56125b084612575565b612595565b612575565b9050919050565b60006125cc8261259f565b9050919050565b60006125de826125c1565b9050919050565b6125ee816125d3565b82525050565b600060208201905061260960008301846125e5565b92915050565b6000604051905090565b600080fd5b600080fd5b6000819050919050565b61263681612623565b811461264157600080fd5b50565b6000813590506126538161262d565b92915050565b600080604083850312156126705761266f612619565b5b600061267e85828601612644565b925050602061268f85828601612644565b9150509250929050565b600060029050919050565b600081905092915050565b6000819050919050565b6126c281612623565b82525050565b60006126d483836126b9565b60208301905092915050565b6000602082019050919050565b6126f681612699565b61270081846126a4565b925061270b826126af565b8060005b8381101561273c57815161272387826126c8565b965061272e836126e0565b92505060018101905061270f565b505050505050565b61274d81612623565b82525050565b600060608201905061276860008301856126ed565b6127756040830184612744565b9392505050565b6000612787826125c1565b9050919050565b6127978161277c565b82525050565b60006020820190506127b2600083018461278e565b92915050565b600080600080608085870312156127d2576127d1612619565b5b60006127e087828801612644565b94505060206127f187828801612644565b935050604061280287828801612644565b925050606061281387828801612644565b91505092959194509250565b600061282a826125c1565b9050919050565b61283a8161281f565b82525050565b60006020820190506128556000830184612831565b92915050565b600080600080600060a0868803121561287757612876612619565b5b600061288588828901612644565b955050602061289688828901612644565b94505060406128a788828901612644565b93505060606128b888828901612644565b92505060806128c988828901612644565b9150509295509295909350565b60006128e1826125c1565b9050919050565b6128f1816128d6565b82525050565b600060208201905061290c60008301846128e8565b92915050565b600061291d82612575565b9050919050565b61292d81612912565b811461293857600080fd5b50565b60008135905061294a81612924565b92915050565b600080fd5b600080fd5b6000601f19601f8301169050919050565b7f4e487b7100000000000000000000000000000000000000000000000000000000600052604160045260246000fd5b6129a38261295a565b810181811067ffffffffffffffff821117156129c2576129c161296b565b5b80604052505050565b60006129d561260f565b90506129e1828261299a565b919050565b600067ffffffffffffffff821115612a0157612a0061296b565b5b612a0a8261295a565b9050602081019050919050565b82818337600083830152505050565b6000612a39612a34846129e6565b6129cb565b905082815260208101848484011115612a5557612a54612955565b5b612a60848285612a17565b509392505050565b600082601f830112612a7d57612a7c612950565b5b8135612a8d848260208601612a26565b91505092915050565b60008060408385031215612aad57612aac612619565b5b6000612abb8582860161293b565b925050602083013567ffffffffffffffff811115612adc57612adb61261e565b5b612ae885828601612a68565b9150509250929050565b600081519050919050565b600082825260208201905092915050565b60005b83811015612b2c578082015181840152602081019050612b11565b83811115612b3b576000848401525b50505050565b6000612b4c82612af2565b612b568185612afd565b9350612b66818560208601612b0e565b612b6f8161295a565b840191505092915050565b60006020820190508181036000830152612b948184612b41565b905092915050565b6000612ba7826125c1565b9050919050565b612bb781612b9c565b82525050565b6000602082019050612bd26000830184612bae565b92915050565b6000819050919050565b612beb81612bd8565b82525050565b6000602082019050612c066000830184612be2565b92915050565b600081905092915050565b7f636f6e74726163742e6164647265737300000000000000000000000000000000600082015250565b6000612c4d601083612c0c565b9150612c5882612c17565b601082019050919050565b7f726f636b65744465706f736974506f6f6c000000000000000000000000000000600082015250565b6000612c99601183612c0c565b9150612ca482612c63565b601182019050919050565b6000612cba82612c40565b9150612cc582612c8c565b9150819050919050565b600081519050612cde81612924565b92915050565b600060208284031215612cfa57612cf9612619565b5b6000612d0884828501612ccf565b91505092915050565b7f726f636b657444414f50726f746f636f6c53657474696e67734465706f736974600082015250565b6000612d47602083612c0c565b9150612d5282612d11565b602082019050919050565b6000612d6882612c40565b9150612d7382612d3a565b9150819050919050565b612d8681612912565b82525050565b6000602082019050612da16000830184612d7d565b92915050565b600081519050612db68161262d565b92915050565b600060208284031215612dd257612dd1612619565b5b6000612de084828501612da7565b91505092915050565b6000602082019050612dfe6000830184612744565b92915050565b60008115159050919050565b612e1981612e04565b8114612e2457600080fd5b50565b600081519050612e3681612e10565b92915050565b600060208284031215612e5257612e51612619565b5b6000612e6084828501612e27565b91505092915050565b7f4e487b7100000000000000000000000000000000000000000000000000000000600052601160045260246000fd5b6000612ea382612623565b9150612eae83612623565b925082821015612ec157612ec0612e69565b5b828203905092915050565b6000612ed782612623565b9150612ee283612623565b9250827fffffffffffffffffffffffffffffffffffffffffffffffffffffffffffffffff03821115612f1757612f16612e69565b5b828201905092915050565b6000612f2d82612623565b9150612f3883612623565b9250817fffffffffffffffffffffffffffffffffffffffffffffffffffffffffffffffff0483118215151615612f7157612f70612e69565b5b828202905092915050565b7f4e487b7100000000000000000000000000000000000000000000000000000000600052601260045260246000fd5b6000612fb682612623565b9150612fc183612623565b925082612fd157612fd0612f7c565b5b828204905092915050565b6000606082019050612ff16000830186612d7d565b612ffe6020830185612d7d565b61300b6040830184612744565b949350505050565b600081905092915050565b50565b600061302e600083613013565b91506130398261301e565b600082019050919050565b600061304f82613021565b9150819050919050565b7f4e487b7100000000000000000000000000000000000000000000000000000000600052603260045260246000fd5b600061309382612623565b91507fffffffffffffffffffffffffffffffffffffffffffffffffffffffffffffffff8214156130c6576130c5612e69565b5b600182019050919050565b6130da81612912565b82525050565b600062ffffff82169050919050565b6130f8816130e0565b82525050565b61310781612575565b82525050565b6101008201600082015161312460008501826130d1565b50602082015161313760208501826130d1565b50604082015161314a60408501826130ef565b50606082015161315d60608501826130d1565b50608082015161317060808501826126b9565b5060a082015161318360a08501826126b9565b5060c082015161319660c08501826126b9565b5060e08201516131a960e08501826130fe565b50505050565b6000610100820190506131c5600083018461310d565b92915050565b7f4e487b7100000000000000000000000000000000000000000000000000000000600052602160045260246000fd5b61320381612bd8565b82525050565b6002811061321a576132196131cb565b5b50565b600081905061322b82613209565b919050565b600061323b8261321d565b9050919050565b61324b81613230565b82525050565b600061325c826125c1565b9050919050565b61326c81613251565b82525050565b600082825260208201905092915050565b600061328e82612af2565b6132988185613272565b93506132a8818560208601612b0e565b6132b18161295a565b840191505092915050565b600060c0830160008301516132d460008601826131fa565b5060208301516132e76020860182613242565b5060408301516132fa6040860182613263565b50606083015161330d6060860182613263565b50608083015161332060808601826126b9565b5060a083015184820360a08601526133388282613283565b9150508091505092915050565b61334e81612e04565b82525050565b600061335f82612575565b9050919050565b61336f81613354565b82525050565b60808201600082015161338b60008501826130d1565b50602082015161339e6020850182613345565b5060408201516133b16040850182613366565b5060608201516133c46060850182613345565b50505050565b6000819050919050565b60006133ef6133ea6133e5846133ca565b612595565b612623565b9050919050565b6133ff816133d4565b82525050565b600060e082019050818103600083015261341f81876132bc565b905061342e6020830186613375565b61343b60a08301856133f6565b61344860c0830184612744565b95945050505050565b60006040820190506134666000830185612d7d565b6134736020830184612744565b9392505050565b613483816130e0565b82525050565b61349281612575565b82525050565b600060a0820190506134ad6000830188612d7d565b6134ba6020830187612d7d565b6134c7604083018661347a565b6134d46060830185612744565b6134e16080830184613489565b9695505050505050565b60006040820190506135006000830185612d7d565b81810360208301526135128184612b41565b90509392505050565b600061352e613529846129e6565b6129cb565b90508281526020810184848401111561354a57613549612955565b5b613555848285612b0e565b509392505050565b600082601f83011261357257613571612950565b5b815161358284826020860161351b565b91505092915050565b6000602082840312156135a1576135a0612619565b5b600082015167ffffffffffffffff8111156135bf576135be61261e565b5b6135cb8482850161355d565b91505092915050565b6135dd81613230565b82525050565b600081519050919050565b600082825260208201905092915050565b6000819050602082019050919050565b600060a08301600083015161362760008601826131fa565b50602083015161363a60208601826126b9565b50604083015161364d60408601826126b9565b50606083015161366060608601826126b9565b50608083015184820360808601526136788282613283565b9150508091505092915050565b6000613691838361360f565b905092915050565b6000602082019050919050565b60006136b1826135e3565b6136bb81856135ee565b9350836020820285016136cd856135ff565b8060005b8581101561370957848403895281516136ea8582613685565b94506136f583613699565b925060208a019950506001810190506136d1565b50829750879550505050505092915050565b600081519050919050565b600082825260208201905092915050565b6000819050602082019050919050565b60006137538383613263565b60208301905092915050565b6000602082019050919050565b60006137778261371b565b6137818185613726565b935061378c83613737565b8060005b838110156137bd5781516137a48882613747565b97506137af8361375f565b925050600181019050613790565b5085935050505092915050565b600060e0820190506137df60008301876135d4565b81810360208301526137f181866136a6565b90508181036040830152613805818561376c565b90506138146060830184613375565b95945050505050565b600067ffffffffffffffff8211156138385761383761296b565b5b602082029050602081019050919050565b600080fd5b6000819050919050565b6138618161384e565b811461386c57600080fd5b50565b60008151905061387e81613858565b92915050565b60006138976138928461381d565b6129cb565b905080838252602082019050602084028301858111156138ba576138b9613849565b5b835b818110156138e357806138cf888261386f565b8452602084019350506020810190506138bc565b5050509392505050565b600082601f83011261390257613901612950565b5b8151613912848260208601613884565b91505092915050565b60006020828403121561393157613930612619565b5b600082015167ffffffffffffffff81111561394f5761394e61261e565b5b61395b848285016138ed565b91505092915050565b600061396f8261384e565b91507f80000000000000000000000000000000000000000000000000000000000000008214156139a2576139a1612e69565b5b816000039050919050565b60006139b882612af2565b6139c28185613013565b93506139d2818560208601612b0e565b80840191505092915050565b60006139ea82846139ad565b915081905092915050565b600082825260208201905092915050565b7f5341000000000000000000000000000000000000000000000000000000000000600082015250565b6000613a3c6002836139f5565b9150613a4782613a06565b602082019050919050565b60006020820190508181036000830152613a6b81613a2f565b905091905056fea26469706673582212204a064618780d0e31c09875415cb369ed58d71df6826be383350b435e7962c6ec64736f6c63430008090033",
  "linkReferences": {},
  "deployedLinkReferences": {}
}