{
  "_format": "hh-sol-artifact-1",
  "contractName": "RocketSwapRouter",
  "sourceName": "contracts/RocketSwapRouter.sol",
  "abi": [
    {
      "inputs": [
        {
          "internalType": "address",
          "name": "_rocketStorage",
          "type": "address"
        },
        {
          "internalType": "address",
          "name": "_wethAddress",
          "type": "address"
        },
        {
          "internalType": "address",
          "name": "_uniswapRouter",
          "type": "address"
        },
        {
          "internalType": "address",
          "name": "_balancerVault",
          "type": "address"
        },
        {
          "internalType": "bytes32",
          "name": "_balancerPoolId",
          "type": "bytes32"
        }
      ],
      "stateMutability": "nonpayable",
      "type": "constructor"
    },
    {
      "inputs": [],
      "name": "LessThanMinimum",
      "type": "error"
    },
    {
      "inputs": [],
      "name": "WETH",
      "outputs": [
        {
          "internalType": "contract IWETH",
          "name": "",
          "type": "address"
        }
      ],
      "stateMutability": "view",
      "type": "function"
    },
    {
      "inputs": [],
      "name": "balancerPoolId",
      "outputs": [
        {
          "internalType": "bytes32",
          "name": "",
          "type": "bytes32"
        }
      ],
      "stateMutability": "view",
      "type": "function"
    },
    {
      "inputs": [],
      "name": "balancerVault",
      "outputs": [
        {
          "internalType": "contract IVault",
          "name": "",
          "type": "address"
        }
      ],
      "stateMutability": "view",
      "type": "function"
    },
    {
      "inputs": [],
      "name": "rETH",
      "outputs": [
        {
          "internalType": "contract IERC20",
          "name": "",
          "type": "address"
        }
      ],
      "stateMutability": "view",
      "type": "function"
    },
    {
      "inputs": [
        {
          "internalType": "uint256",
          "name": "_uniswapPortion",
          "type": "uint256"
        },
        {
          "internalType": "uint256",
          "name": "_balancePortion",
          "type": "uint256"
        },
        {
          "internalType": "uint256",
          "name": "_minTokensOut",
          "type": "uint256"
        }
      ],
      "name": "swap",
      "outputs": [],
      "stateMutability": "payable",
      "type": "function"
    },
    {
      "inputs": [],
      "name": "uniswapPoolFee",
      "outputs": [
        {
          "internalType": "uint24",
          "name": "",
          "type": "uint24"
        }
      ],
      "stateMutability": "view",
      "type": "function"
    },
    {
      "inputs": [],
      "name": "uniswapRouter",
      "outputs": [
        {
          "internalType": "contract ISwapRouter",
          "name": "",
          "type": "address"
        }
      ],
      "stateMutability": "view",
      "type": "function"
    }
  ],
  "bytecode": "0x6101006040523480156200001257600080fd5b5060405162001f6c38038062001f6c8339818101604052810190620000389190620002b5565b8473ffffffffffffffffffffffffffffffffffffffff1660808173ffffffffffffffffffffffffffffffffffffffff168152505060805173ffffffffffffffffffffffffffffffffffffffff166321f8a7216040516020016200009b90620003e8565b604051602081830303815290604052805190602001206040518263ffffffff1660e01b8152600401620000cf91906200041d565b60206040518083038186803b158015620000e857600080fd5b505afa158015620000fd573d6000803e3d6000fd5b505050506040513d601f19601f820116820180604052508101906200012391906200043a565b73ffffffffffffffffffffffffffffffffffffffff1660c08173ffffffffffffffffffffffffffffffffffffffff16815250508373ffffffffffffffffffffffffffffffffffffffff1660e08173ffffffffffffffffffffffffffffffffffffffff16815250508273ffffffffffffffffffffffffffffffffffffffff1660a08173ffffffffffffffffffffffffffffffffffffffff1681525050816000806101000a81548173ffffffffffffffffffffffffffffffffffffffff021916908373ffffffffffffffffffffffffffffffffffffffff1602179055508060018190555050505050506200046c565b600080fd5b600073ffffffffffffffffffffffffffffffffffffffff82169050919050565b6000620002428262000215565b9050919050565b620002548162000235565b81146200026057600080fd5b50565b600081519050620002748162000249565b92915050565b6000819050919050565b6200028f816200027a565b81146200029b57600080fd5b50565b600081519050620002af8162000284565b92915050565b600080600080600060a08688031215620002d457620002d362000210565b5b6000620002e48882890162000263565b9550506020620002f78882890162000263565b94505060406200030a8882890162000263565b93505060606200031d8882890162000263565b925050608062000330888289016200029e565b9150509295509295909350565b600081905092915050565b7f636f6e74726163742e6164647265737300000000000000000000000000000000600082015250565b6000620003806010836200033d565b91506200038d8262000348565b601082019050919050565b7f726f636b6574546f6b656e524554480000000000000000000000000000000000600082015250565b6000620003d0600f836200033d565b9150620003dd8262000398565b600f82019050919050565b6000620003f58262000371565b91506200040282620003c1565b9150819050919050565b62000417816200027a565b82525050565b60006020820190506200043460008301846200040c565b92915050565b60006020828403121562000453576200045262000210565b5b6000620004638482850162000263565b91505092915050565b60805160a05160c05160e051611a72620004fa60003960008181610586015281816107c6015281816108300152818161090401528181610a500152610ba70152600081816106250152818161070a015281816107ea0152818161086c0152610aa80152600081816101bf01528181610925015261094c0152600081816101e501526102b60152611a726000f3fe6080604052600436106100705760003560e01c80639d9892cd1161004e5780639d9892cd146100f6578063ad5c464814610112578063ca8aa0e41461013d578063dbbb64b91461016857610070565b8063158274a5146100755780633651c24b146100a0578063735de9f7146100cb575b600080fd5b34801561008157600080fd5b5061008a610193565b6040516100979190610fbd565b60405180910390f35b3480156100ac57600080fd5b506100b56101b7565b6040516100c29190610ff6565b60405180910390f35b3480156100d757600080fd5b506100e06101bd565b6040516100ed9190611032565b60405180910390f35b610110600480360381019061010b9190611088565b6101e1565b005b34801561011e57600080fd5b506101276107c4565b60405161013491906110fc565b60405180910390f35b34801561014957600080fd5b506101526107e8565b60405161015f9190611138565b60405180910390f35b34801561017457600080fd5b5061017d61080c565b60405161018a919061116c565b60405180910390f35b60008054906101000a900473ffffffffffffffffffffffffffffffffffffffff1681565b6101f481565b7f000000000000000000000000000000000000000000000000000000000000000081565b60007f000000000000000000000000000000000000000000000000000000000000000073ffffffffffffffffffffffffffffffffffffffff166321f8a72160405160200161022e9061122a565b604051602081830303815290604052805190602001206040518263ffffffff1660e01b8152600401610260919061116c565b60206040518083038186803b15801561027857600080fd5b505afa15801561028c573d6000803e3d6000fd5b505050506040513d601f19601f820116820180604052508101906102b09190611288565b905060007f000000000000000000000000000000000000000000000000000000000000000073ffffffffffffffffffffffffffffffffffffffff166321f8a7216040516020016102ff90611301565b604051602081830303815290604052805190602001206040518263ffffffff1660e01b8152600401610331919061116c565b60206040518083038186803b15801561034957600080fd5b505afa15801561035d573d6000803e3d6000fd5b505050506040513d601f19601f820116820180604052508101906103819190611288565b905060003490506000808373ffffffffffffffffffffffffffffffffffffffff16636ada78476040518163ffffffff1660e01b815260040160206040518083038186803b1580156103d157600080fd5b505afa1580156103e5573d6000803e3d6000fd5b505050506040513d601f19601f820116820180604052508101906104099190611359565b905080156105495760008573ffffffffffffffffffffffffffffffffffffffff166312065fe06040518163ffffffff1660e01b815260040160206040518083038186803b15801561045957600080fd5b505afa15801561046d573d6000803e3d6000fd5b505050506040513d601f19601f82011682018060405250810190610491919061139b565b905060008573ffffffffffffffffffffffffffffffffffffffff1663fd6ce89e6040518163ffffffff1660e01b815260040160206040518083038186803b1580156104db57600080fd5b505afa1580156104ef573d6000803e3d6000fd5b505050506040513d601f19601f82011682018060405250810190610513919061139b565b90508082101561054657818161052991906113f7565b935034841115610537573493505b838561054391906113f7565b94505b50505b60008789610557919061142b565b90506000818a866105689190611481565b610572919061150a565b90506000818661058291906113f7565b90507f000000000000000000000000000000000000000000000000000000000000000073ffffffffffffffffffffffffffffffffffffffff1663d0e30db0876040518263ffffffff1660e01b81526004016000604051808303818588803b1580156105ec57600080fd5b505af1158015610600573d6000803e3d6000fd5b505050505061060e82610812565b610617816109fb565b6106218886610ca6565b60007f000000000000000000000000000000000000000000000000000000000000000073ffffffffffffffffffffffffffffffffffffffff166370a08231306040518263ffffffff1660e01b815260040161067c919061154a565b60206040518083038186803b15801561069457600080fd5b505afa1580156106a8573d6000803e3d6000fd5b505050506040513d601f19601f820116820180604052508101906106cc919061139b565b905089811015610708576040517fe4e014cd00000000000000000000000000000000000000000000000000000000815260040160405180910390fd5b7f000000000000000000000000000000000000000000000000000000000000000073ffffffffffffffffffffffffffffffffffffffff1663a9059cbb33836040518363ffffffff1660e01b8152600401610763929190611574565b602060405180830381600087803b15801561077d57600080fd5b505af1158015610791573d6000803e3d6000fd5b505050506040513d601f19601f820116820180604052508101906107b59190611359565b50505050505050505050505050565b7f000000000000000000000000000000000000000000000000000000000000000081565b7f000000000000000000000000000000000000000000000000000000000000000081565b60015481565b6000811415610820576109f8565b60006040518061010001604052807f000000000000000000000000000000000000000000000000000000000000000073ffffffffffffffffffffffffffffffffffffffff1681526020017f000000000000000000000000000000000000000000000000000000000000000073ffffffffffffffffffffffffffffffffffffffff1681526020016101f462ffffff1681526020013073ffffffffffffffffffffffffffffffffffffffff16815260200142815260200183815260200160008152602001600073ffffffffffffffffffffffffffffffffffffffff16815250905061094a7f00000000000000000000000000000000000000000000000000000000000000007f000000000000000000000000000000000000000000000000000000000000000084610d1a565b7f000000000000000000000000000000000000000000000000000000000000000073ffffffffffffffffffffffffffffffffffffffff1663414bf389826040518263ffffffff1660e01b81526004016109a3919061167b565b602060405180830381600087803b1580156109bd57600080fd5b505af11580156109d1573d6000803e3d6000fd5b505050506040513d601f19601f820116820180604052508101906109f5919061139b565b50505b50565b6000811415610a0957610ca3565b610a11610e6f565b600154816000018181525050600081602001906001811115610a3657610a35611697565b5b90816001811115610a4a57610a49611697565b5b815250507f0000000000000000000000000000000000000000000000000000000000000000816040019073ffffffffffffffffffffffffffffffffffffffff16908173ffffffffffffffffffffffffffffffffffffffff16815250507f0000000000000000000000000000000000000000000000000000000000000000816060019073ffffffffffffffffffffffffffffffffffffffff16908173ffffffffffffffffffffffffffffffffffffffff168152505081816080018181525050610b10610ee6565b30816000019073ffffffffffffffffffffffffffffffffffffffff16908173ffffffffffffffffffffffffffffffffffffffff168152505030816040019073ffffffffffffffffffffffffffffffffffffffff16908173ffffffffffffffffffffffffffffffffffffffff168152505060008160200190151590811515815250506000816060019015159081151581525050610bed7f000000000000000000000000000000000000000000000000000000000000000060008054906101000a900473ffffffffffffffffffffffffffffffffffffffff1685610d1a565b60008054906101000a900473ffffffffffffffffffffffffffffffffffffffff1673ffffffffffffffffffffffffffffffffffffffff166352bbbe2983836000426040518563ffffffff1660e01b8152600401610c4d9493929190611920565b602060405180830381600087803b158015610c6757600080fd5b505af1158015610c7b573d6000803e3d6000fd5b505050506040513d601f19601f82011682018060405250810190610c9f919061139b565b5050505b50565b6000811415610cb457610d16565b8173ffffffffffffffffffffffffffffffffffffffff1663d0e30db0826040518263ffffffff1660e01b81526004016000604051808303818588803b158015610cfc57600080fd5b505af1158015610d10573d6000803e3d6000fd5b50505050505b5050565b6000808473ffffffffffffffffffffffffffffffffffffffff1663095ea7b360e01b8585604051602401610d4f929190611574565b604051602081830303815290604052907bffffffffffffffffffffffffffffffffffffffffffffffffffffffff19166020820180517bffffffffffffffffffffffffffffffffffffffffffffffffffffffff8381831617835250505050604051610db991906119a8565b6000604051808303816000865af19150503d8060008114610df6576040519150601f19603f3d011682016040523d82523d6000602084013e610dfb565b606091505b5091509150818015610e295750600081511480610e28575080806020019051810190610e279190611359565b5b5b610e68576040517f08c379a0000000000000000000000000000000000000000000000000000000008152600401610e5f90611a1c565b60405180910390fd5b5050505050565b6040518060c001604052806000801916815260200160006001811115610e9857610e97611697565b5b8152602001600073ffffffffffffffffffffffffffffffffffffffff168152602001600073ffffffffffffffffffffffffffffffffffffffff16815260200160008152602001606081525090565b6040518060800160405280600073ffffffffffffffffffffffffffffffffffffffff168152602001600015158152602001600073ffffffffffffffffffffffffffffffffffffffff1681526020016000151581525090565b600073ffffffffffffffffffffffffffffffffffffffff82169050919050565b6000819050919050565b6000610f83610f7e610f7984610f3e565b610f5e565b610f3e565b9050919050565b6000610f9582610f68565b9050919050565b6000610fa782610f8a565b9050919050565b610fb781610f9c565b82525050565b6000602082019050610fd26000830184610fae565b92915050565b600062ffffff82169050919050565b610ff081610fd8565b82525050565b600060208201905061100b6000830184610fe7565b92915050565b600061101c82610f8a565b9050919050565b61102c81611011565b82525050565b60006020820190506110476000830184611023565b92915050565b600080fd5b6000819050919050565b61106581611052565b811461107057600080fd5b50565b6000813590506110828161105c565b92915050565b6000806000606084860312156110a1576110a061104d565b5b60006110af86828701611073565b93505060206110c086828701611073565b92505060406110d186828701611073565b9150509250925092565b60006110e682610f8a565b9050919050565b6110f6816110db565b82525050565b600060208201905061111160008301846110ed565b92915050565b600061112282610f8a565b9050919050565b61113281611117565b82525050565b600060208201905061114d6000830184611129565b92915050565b6000819050919050565b61116681611153565b82525050565b6000602082019050611181600083018461115d565b92915050565b600081905092915050565b7f636f6e74726163742e6164647265737300000000000000000000000000000000600082015250565b60006111c8601083611187565b91506111d382611192565b601082019050919050565b7f726f636b65744465706f736974506f6f6c000000000000000000000000000000600082015250565b6000611214601183611187565b915061121f826111de565b601182019050919050565b6000611235826111bb565b915061124082611207565b9150819050919050565b600061125582610f3e565b9050919050565b6112658161124a565b811461127057600080fd5b50565b6000815190506112828161125c565b92915050565b60006020828403121561129e5761129d61104d565b5b60006112ac84828501611273565b91505092915050565b7f726f636b657444414f50726f746f636f6c53657474696e67734465706f736974600082015250565b60006112eb602083611187565b91506112f6826112b5565b602082019050919050565b600061130c826111bb565b9150611317826112de565b9150819050919050565b60008115159050919050565b61133681611321565b811461134157600080fd5b50565b6000815190506113538161132d565b92915050565b60006020828403121561136f5761136e61104d565b5b600061137d84828501611344565b91505092915050565b6000815190506113958161105c565b92915050565b6000602082840312156113b1576113b061104d565b5b60006113bf84828501611386565b91505092915050565b7f4e487b7100000000000000000000000000000000000000000000000000000000600052601160045260246000fd5b600061140282611052565b915061140d83611052565b9250828210156114205761141f6113c8565b5b828203905092915050565b600061143682611052565b915061144183611052565b9250827fffffffffffffffffffffffffffffffffffffffffffffffffffffffffffffffff03821115611476576114756113c8565b5b828201905092915050565b600061148c82611052565b915061149783611052565b9250817fffffffffffffffffffffffffffffffffffffffffffffffffffffffffffffffff04831182151516156114d0576114cf6113c8565b5b828202905092915050565b7f4e487b7100000000000000000000000000000000000000000000000000000000600052601260045260246000fd5b600061151582611052565b915061152083611052565b9250826115305761152f6114db565b5b828204905092915050565b6115448161124a565b82525050565b600060208201905061155f600083018461153b565b92915050565b61156e81611052565b82525050565b6000604082019050611589600083018561153b565b6115966020830184611565565b9392505050565b6115a68161124a565b82525050565b6115b581610fd8565b82525050565b6115c481611052565b82525050565b6115d381610f3e565b82525050565b610100820160008201516115f0600085018261159d565b506020820151611603602085018261159d565b50604082015161161660408501826115ac565b506060820151611629606085018261159d565b50608082015161163c60808501826115bb565b5060a082015161164f60a08501826115bb565b5060c082015161166260c08501826115bb565b5060e082015161167560e08501826115ca565b50505050565b60006101008201905061169160008301846115d9565b92915050565b7f4e487b7100000000000000000000000000000000000000000000000000000000600052602160045260246000fd5b6116cf81611153565b82525050565b600281106116e6576116e5611697565b5b50565b60008190506116f7826116d5565b919050565b6000611707826116e9565b9050919050565b611717816116fc565b82525050565b600061172882610f8a565b9050919050565b6117388161171d565b82525050565b600081519050919050565b600082825260208201905092915050565b60005b8381101561177857808201518184015260208101905061175d565b83811115611787576000848401525b50505050565b6000601f19601f8301169050919050565b60006117a98261173e565b6117b38185611749565b93506117c381856020860161175a565b6117cc8161178d565b840191505092915050565b600060c0830160008301516117ef60008601826116c6565b506020830151611802602086018261170e565b506040830151611815604086018261172f565b506060830151611828606086018261172f565b50608083015161183b60808601826115bb565b5060a083015184820360a0860152611853828261179e565b9150508091505092915050565b61186981611321565b82525050565b600061187a82610f3e565b9050919050565b61188a8161186f565b82525050565b6080820160008201516118a6600085018261159d565b5060208201516118b96020850182611860565b5060408201516118cc6040850182611881565b5060608201516118df6060850182611860565b50505050565b6000819050919050565b600061190a611905611900846118e5565b610f5e565b611052565b9050919050565b61191a816118ef565b82525050565b600060e082019050818103600083015261193a81876117d7565b90506119496020830186611890565b61195660a0830185611911565b61196360c0830184611565565b95945050505050565b600081905092915050565b60006119828261173e565b61198c818561196c565b935061199c81856020860161175a565b80840191505092915050565b60006119b48284611977565b915081905092915050565b600082825260208201905092915050565b7f5341000000000000000000000000000000000000000000000000000000000000600082015250565b6000611a066002836119bf565b9150611a11826119d0565b602082019050919050565b60006020820190508181036000830152611a35816119f9565b905091905056fea264697066735822122059b265f59aadbbc7ef49d1a9ccc61a39d5ff24e5860f6c1b54aab91ef0ffb39264736f6c63430008090033",
  "linkReferences": {},
  "deployedLinkReferences": {}
}